:020000040800F2
:10000000E00B0020E9030008ED010008EF01000803
:10001000F3010008F7010008FB01000800000000E0
:10002000000000000000000000000000FF010008C8
:100030000102000800000000030200080502000899
:100040000304000803040008030400080304000874
:100050000304000803040008030400080304000864
:100060000304000803040008030400080304000854
:100070000304000803040008030400080304000844
:100080000304000803040008030400080304000834
:100090000304000803040008030400080304000824
:1000A0000304000803040008030400080304000814
:1000B000030400081F2C00080304000803040008C0
:1000C00003040008030400080304000803040008F4
:1000D0000304000875200008030400080304000856
:1000E00003040008030400080304000800F002F8F9
:1000F00000F03AF80AA090E8000C82448344AAF188
:100100000107DA4501D100F02FF8AFF2090EBAE885
:100110000F0013F0010F18BFFB1A43F0010318473B
:100120006C5700008C570000103A24BF78C878C183
:10013000FAD8520724BF30C830C144BF04680C60ED
:10014000704700000023002400250026103A28BF35
:1001500078C1FBD8520728BF30C148BF0B60704739
:100160001FB51FBD10B510BD02F0B8FD1146FFF759
:10017000F7FF00F01BF802F0EAFD03B4FFF7F2FF0F
:1001800003BC01F01DFF000038B5054600240AE05D
:1001900001202919CAB221070090080E102300215E
:1001A00002F0ACFA641C082CF2DB38BD00BF00BFC3
:1001B00000BF00BF00BF01F037FE4FF4FA7001F03E
:1001C00070FE4FF4A06000F02FF94FF4165001F0CC
:1001D00005FF02A002F044FD00BFFEE75265636523
:1001E00069766520446174610A000000704700BFB1
:1001F000FEE700BFFEE700BFFEE700BFFEE7704777
:1002000070477047704700000CB5002001900090C7
:100210006C48006840F480306A49086000BF694853
:10022000006800F4003000900198401C0190009894
:1002300018B90198B0F5A06FF1D16248006800F4D8
:10024000003010B10120009001E0002000900098E3
:10025000012843D15C48006840F010005A4908600A
:100260000846006820F0030008600846006840F077
:100270000200086053484068524948600846406898
:1002800048600846406840F480604860084640681E
:1002900020F47C1048600846406840F4E81048604C
:1002A0000846006840F08070086000BF454800685C
:1002B00000F000700028F9D04248406820F00300A8
:1002C000404948600846406840F00200486000BF6E
:1002D0003C48406800F00C000828F9D10CBD10B56E
:1002E000FFF792FF10BD10B53648006840F00100DE
:1002F000344908600846406834490840314948603C
:1003000008460068324908402E49086008460068DF
:1003100020F4802008600846406820F4FE00486011
:100320004FF41F008860FFF7DAFF4FF000602949A3
:10033000086010BD10B5002100200022214B5B6831
:1003400003F00C0121B1042906D0082928D107E0C7
:10035000214B224C236027E01F4B204C236023E0DD
:10036000184B5B6803F47010164B5B6803F4803223
:10037000022303EB904022B9194B4343174C2360EF
:100380000DE0104B5B6803F4003323B1144B43437F
:10039000124C236003E0104B4343104C236003E0F6
:1003A0000D4B0E4C236000BF00BF064B5B68C3F3D0
:1003B00003130C4CE15C094B1B68CB40074C2360DA
:1003C00010BD000000100240002002400000FFF8B5
:1003D000FFFFF6FE08ED00E000127A0000000020AA
:1003E00000093D00040000200948804709480047F3
:1003F000FEE7FEE7FEE7FEE7FEE7FEE7FEE7FEE7D5
:10040000FEE7FEE704480549054A064B7047000031
:10041000E7020008ED000008E0050020E00B0020E6
:10042000E0070020E007002031490143314A116014
:10043000704770B5002100230F22C47804B32D4CFF
:10044000246804F4E064C4F5E064210AC1F1040303
:10045000CA40447804FA03F1847814402143090126
:10046000254C0678A155047804F01F050124AC4002
:1004700005786D11AD0005F1E025C5F8004109E0F2
:10048000047804F01F050124AC401C4D0678761159
:1004900045F8264070BD1A4A0A400243154B1B1FFF
:1004A0001A60704739B1134A121D12680243114B8A
:1004B0001B1D1A6006E00F4A121D126882430D4B85
:1004C0001B1D1A607047042808D14FF0E02109690C
:1004D00041F004014FF0E022116107E04FF0E0210C
:1004E000096921F004014FF0E0221161704700001A
:1004F0000000FA050CED00E000E400E080E100E01F
:1005000080FFFF1F10B50446CC48844208D101216A
:10051000042000F02DFB0021042000F029FB46E020
:10052000C748844208D10121082000F021FB0021A6
:10053000082000F01DFB3AE0C248844208D10121A6
:10054000102000F015FB0021102000F011FB2EE020
:10055000BD48844208D10121202000F009FB002180
:10056000202000F005FB22E0B848844208D1012198
:10057000402000F0FDFA0021402000F0F9FA16E0DA
:10058000B348844208D10121802000F0F1FA002113
:10059000802000F0EDFA0AE0AE48844207D1012144
:1005A000801500F0E5FA0021A01500F0E1FA10BD79
:1005B00010B50121084600F0DBFA0021012000F00F
:1005C000D7FA10BD2DE9F041024600250026002093
:1005D00000230024002791F803C00CF00F0591F8C8
:1005E00003C00CF0100CBCF1000F03D091F802C056
:1005F0004CEA050591F800C0BCF1000F31D0146839
:1006000000202BE04FF0010C0CFA00F3B1F800C011
:100610000CEA03069E4220D183004FF00F0C0CFA27
:1006200003F7BC4305FA03FC4CEA040491F803C049
:10063000BCF1280F06D14FF0010C0CFA00FCC2F8F7
:1006400014C00AE091F803C0BCF1480F05D14FF087
:10065000010C0CFA00FCC2F810C0401C0828D1D3D1
:100660001460B1F800C0BCF1FF0F34DD5468002005
:100670002EE000F1080C4FF0010808FA0CF3B1F875
:1006800000C00CEA03069E4221D183004FF00F0CFC
:100690000CFA03F7BC4305FA03FC4CEA040491F896
:1006A00003C0BCF1280F05D100F1080C08FA0CF8C2
:1006B000C2F8148091F803C0BCF1480F07D100F1D3
:1006C000080C4FF0010808FA0CF8C2F81080401C22
:1006D0000828CED35460BDE8F0814FF6FF71018049
:1006E000022181700421C170704702460020936886
:1006F0000B400BB1012000E00020704701468868E4
:1007000080B2704702460020D3680B400BB1012035
:1007100000E0002070470146C86880B27047016160
:100720007047416170470AB1016100E04161704763
:10073000C16070474FF480320A43826181618261F7
:1007400082698269704702460020434B18684FF661
:100750008073184040EA021008433F4B186070470E
:100760003E49C8617047F0B50A46002300240021C5
:10077000002500F00046B6F1004F02D1364EF16977
:1007800001E0354E7168C0F3034583B200F44016B2
:10079000B6F5401F08D121F070612F4E766826F023
:1007A00070662D4F7E6012E000F48016B6F5801F53
:1007B00006D1032606FA05F4A14341F0706106E074
:1007C000460D360103FA06F6B14341F0706122B1DD
:1007D000460D360103FA06F6314300F00046B6F145
:1007E000004F02D11C4EF16101E01B4E7160F0BD63
:1007F00030B500228B071C0F0F2303FA04F2164BAF
:1008000008338C1053F824309343134C08348D1064
:1008100044F8253023468C1053F824308C07240FDD
:1008200000FA04F423430C4C08348D1044F82530AE
:1008300030BD0A49DC310860704700000008014003
:10084000000C01400010014000140140001801405C
:10085000001C014000200140000001400000204237
:10086000DF48006840F00100DD4908600846406844
:10087000DC490840DA49486008460068DA4908401F
:10088000D74908600846006820F4802008600846C0
:10089000406820F4FE0048604FF41F0088607047F5
:1008A000CF49096821F48031CD4A116011460968A9
:1008B00021F480211160B0F5803F03D0B0F5802F86
:1008C0000ED106E0C649096841F48031C44A11607E
:1008D00007E0C349096841F4A021C14A116000E062
:1008E00000BF00BF704710B5014600220023002062
:1008F0004A11012A02D1BA4C236806E0022A02D129
:10090000B74C236A01E0B64C636A01F01F02012470
:1009100094401C400CB1012000E0002010BD38B50F
:10092000002000900024002500BF3120FFF7DBFFEE
:1009300005460098401C00900098B0F5A06F01D0CB
:10094000002DF2D03120FFF7CEFF08B1012400E0E6
:100950000024204638BD01460020A14A106820F03E
:10096000F80040EAC10010607047A0490860704775
:10097000024600209A4B586820F47C1042EA01039A
:100980001843974B5860704798490866704701466E
:100990000020934A506820F00300084350607047DD
:1009A0008F48406800F00C007047014600208C4AD8
:1009B000506820F0F0000843506070470146002066
:1009C000874A506820F4E060084350607047014651
:1009D0000020834A506820F4605040EAC100506013
:1009E000704729B17E4A527A02437D4B5A7204E025
:1009F0007B4A527A82437A4B5A7270477B49D8318C
:100A00000860704701460020754A506820F4404055
:100A10000843506070470021714A20321170704ABB
:100A200082F82010012802D004280AD104E0012114
:100A30006B4A2032117005E00521694A203211709D
:100A400000E000BF00BF7047694908607047644913
:100A5000096A0143624A1162704765494439086076
:100A6000704730B500210022002400235C4D6D68E2
:100A700005F00C0121B1042905D0082923D105E096
:100A80005C4D056022E05B4D05601FE0544D6D68D4
:100A900005F47012524D6D6805F48034022505EBA3
:100AA00092421CB9544D554305600BE04C4D6D68A6
:100AB00005F400351DB1504D5543056002E04D4D24
:100AC0005543056002E04B4D056000BF00BF444D3B
:100AD0006D6805F0F0010909484D6B5C0568DD4063
:100AE00045603F4D6D6805F4E061090A434D6B5C5C
:100AF0004568DD4085603A4D6D6805F46051C90A6E
:100B00003E4D6B5C4568DD40C560354D6D6805F454
:100B10004041890B3A4D6B5CC568B5FBF3F5056147
:100B200030BD29B12E4A526902432D4B5A6104E06F
:100B30002B4A526982432A4B5A61704729B1284A8D
:100B400092690243264B9A6104E0254A92698243E6
:100B5000234B9A61704729B1214AD2690243204B45
:100B6000DA6104E01E4AD26982431D4BDA617047A4
:100B700029B11B4AD2680243194BDA6004E0184AD3
:100B8000D2688243164BDA60704729B1144A126961
:100B90000243134B1A6104E0114A12698243104B5D
:100BA0001A61704712494039086070470F49C8649C
:100BB00070470B49C87170470948406A40F080701F
:100BC00007494862704701460020054A92680A407A
:100BD0000AB1012000E00020704701498872704787
:100BE000001002400000FFF8FFFFF6FE0000424246
:100BF0008004424200127A0000093D0014000020E7
:100C00002400002010B50446FE48844208D101218A
:100C1000C014FFF7ADFF0021E014FFF7A9FFC4E007
:100C2000B4F1804F08D101210846FFF7AEFF002143
:100C30000120FFF7AAFFB8E0F348844208D1012160
:100C40000220FFF7A2FF00210220FFF79EFFACE089
:100C5000EE48844208D101210420FFF796FF0021CD
:100C60000420FFF792FFA0E0E948844208D1012167
:100C70000820FFF78AFF00210820FFF786FF94E095
:100C8000E448844208D101211020FFF77EFF0021B3
:100C90001020FFF77AFF88E0DF48844208D1012165
:100CA0002020FFF772FF00212020FFF76EFF7CE07D
:100CB000DA48844208D101214014FFF759FF00218E
:100CC0006014FFF755FF70E0D548844209D1012137
:100CD000C804FFF74DFF00214FF40020FFF748FF45
:100CE00063E0D048844209D101210805FFF740FFA5
:100CF00000214FF48010FFF73BFF56E0CA488442C2
:100D000009D101214805FFF733FF00214FF40010FE
:100D1000FFF72EFF49E0C548844208D10121402059
:100D2000FFF733FF00214020FFF72FFF3DE0C048D1
:100D3000844208D101218020FFF727FF0021802075
:100D4000FFF723FF31E0BB48844208D10121801521
:100D5000FFF71BFF0021A015FFF717FF25E0B6489E
:100D6000844209D101210804FFF702FF00214FF45A
:100D70008030FFF7FDFE18E0B048844209D1012120
:100D80004804FFF7F5FE00214FF40030FFF7F0FEB6
:100D90000BE0AB48844208D101218804FFF7E8FE4C
:100DA00000214FF48020FFF7E3FE10BD00220288EF
:100DB000944B98420ED0994B98420BD0B0F1804F93
:100DC00008D0914B984205D0904B984202D0904B5E
:100DD000984204D14FF68F731A404B881A438D4BBB
:100DE000984207D08C4B984204D04FF6FF431A40EC
:100DF000CB881A4302808B8883850B880385814BBF
:100E000098420BD0854B984208D08B4B984205D026
:100E10008A4B984202D08A4B984201D10B7A0386C2
:100E200001238382704770B5002400220023058CC3
:100E30004FF6FE7635400584028C8388048B4FF68E
:100E40008F752C40B51E2C400D882C43751E2A40F2
:100E50000D892A434D882A436A4DA8420BD06F4D15
:100E6000A84208D0744DA84205D0744DA84202D0C3
:100E7000734DA84213D14FF6F7752A404D892A4386
:100E80004FF6FB752A408D882A434FF6FF652B40AD
:100E90004FF6FF552B408D892B43CD892B43838003
:100EA0000483CD888586028470BD70B5002400223D
:100EB0000023058C4FF6EF7635400584028C83883D
:100EC000048B48F6FF752C404FF6FF452C400D88EB
:100ED0004FF6FF7606EA05252C434FF6DF752A40CC
:100EE0000D8906EA05152A434D8806EA05152A43A9
:100EF000444DA84202D0494DA8421DD14FF67F75FE
:100F00002A404D894FF6FF7606EA05152A434FF62B
:100F1000BF752A408D8806EA05152A434FF6FF352E
:100F20002B404FF2FF752B408D8906EA85052B4338
:100F3000CD8906EA85052B4383800483CD88058708
:100F4000028470BD70B5002400220023058C4FF68A
:100F5000FF6635400584028C8388848B4FF68F753D
:100F60002C404FF6FC752C400D882C434FF6FF5556
:100F70002A400D894FF6FF7606EA05252A434D885B
:100F800006EA05252A431F4DA84202D0234DA84258
:100F90001DD14FF2FF752A404D894FF6FF7606EAC4
:100FA00005252A434FF6FF352A408D8806EA052598
:100FB0002A434EF6FF752B404DF6FF752B408D8969
:100FC00006EA05152B43CD8906EA05152B438380D8
:100FD0008483CD888587028470BD70B5002200238C
:100FE0000024058C4EF6FF7635400584038C8488FA
:100FF000828B48F6FF752A404FF6FF452A400D8840
:1010000020E00000002C01400004004000080040E7
:10101000000C00400010004000140040003401406B
:10102000004C0140005001400054014000180040B5
:10103000001C0040002000400040014000440140EE
:10104000004801404FF6FF7606EA05252A434DF693
:10105000FF752B400D8906EA05352B434D8806EABE
:1010600005352B43FA4DA84202D0FA4DA84208D1CB
:101070004BF6FF752C408D894FF6FF7606EA8515F5
:101080002C4384808283CD88A0F84050038470BDB7
:10109000828B4FF2FF331A408283828B4FF6FF73AD
:1010A00003EA01231A4382837047F0B50C461546C4
:1010B000002200210026078C4EF6FF7C07EA0C0771
:1010C0000784828B018C4FF6FF7707EA043640F6DF
:1010D000FF473A404FF6FF7707EA05273A434FF6B6
:1010E000FF7707EA03373A43D94FB8420ED0D94FBA
:1010F000B8420BD0B0F1804F08D0D74FB84205D0DE
:10110000D64FB84202D0D64FB84206D14DF6FF773F
:10111000394046F48057394305E047F6FF573940D8
:1011200044F48057394382830184F0BD828B4FF6AB
:10113000F3731A408283828B0A4382837047F0B52F
:101140000C461546002200210026078C4FF6FF6C46
:1011500007EA0C070784828B018C4FF6FF7707EABA
:1011600004264FF60C773A404FF6FF7707EA03174D
:101170002F433A43B64FB8420ED0B64FB8420BD0C9
:10118000B0F1804F08D0B44FB84205D0B34FB84249
:1011900002D0B34FB84206D14FF6FF57394046F45C
:1011A0008077394305E04FF2FF57394044F48077A8
:1011B000394382830184F0BD028B4FF2FF331A4022
:1011C0000283028B4FF6FF7303EA01231A43028363
:1011D0007047F0B50C461546002200210026078C0A
:1011E0004FF6EF7C07EA0C070784028B018C4FF661
:1011F000FF7707EA041640F6FF473A404FF6FF77BD
:1012000007EA03373A434FF6FF7707EA05273A43E1
:101210008F4FB8420ED08F4FB8420BD0B0F1804FF5
:1012200008D08D4FB84205D08C4FB84202D08C4FB9
:10123000B84206D14FF6DF77394046F01007394300
:1012400005E04FF65F77394044F0100739430283D9
:101250000184F0BD028B4FF6F3731A400283028BB8
:101260000A4302837047F0B50C4615460022002160
:10127000068C4FF6FE773E400684028B018C4FF6BB
:101280000C7632407E1C06EA03162E433243704E23
:10129000B0420ED06F4EB0420BD0B0F1804F08D0AC
:1012A0006D4EB04205D06D4EB04202D06C4EB04291
:1012B00006D14FF6FD76314044F00106314305E09A
:1012C0004FF6F576314044F0010631430283018444
:1012D000F0BD70B505460C465D4885420ED05D48B0
:1012E00085420BD0B5F1804F08D05B48854205D0D0
:1012F0005A48854202D05A48854200D100E000BFDA
:10130000208850B92389A28861882846FFF7ABFF5F
:10131000E1882846FFF79EFF25E0208804280AD1AF
:101320002389A28861882846FFF753FFE188284671
:10133000FFF742FF17E0208808280AD12389A288F6
:1013400061882846FFF7FBFEE1882846FFF7EEFE9E
:1013500009E02389A28861882846FFF7A6FEE18874
:101360002846FFF795FE70BD2DE9F04105460C4675
:1013700000260127608808B9022600E00026A08820
:10138000012801D1022700E001272088A0B9238984
:10139000A28861882846FFF766FFE1882846FFF7A4
:1013A00059FF23893A4631462846FFF712FFE18864
:1013B0002846FFF701FF13E02389A28861882846A9
:1013C000FFF707FFE1882846FFF7F6FE23893A4634
:1013D00031462846FFF747FFE1882846FFF73AFFE6
:1013E000BDE8F0810A884B881A438B881A43CB8862
:1013F0001A430B891A434B891A438B891A43A0F865
:10140000442070474FF6FF71818000210180C18028
:101410004180017270470021018041808180C1803C
:10142000018141818181C18170470021018041801A
:10143000012181800021C18001817047002101804C
:1014400041808180C180018141818181704700009C
:10145000002C01400034014000040040000800401E
:10146000000C004021B1028842F00102028004E039
:1014700002884FF6FE731A400280704731B1B0F80F
:10148000442042F40042A0F8442005E0B0F8442093
:10149000C2F30E02A0F8442070471AB183890B43AF
:1014A000838102E083898B43838170478182704707
:1014B00041EA0203A0F8483070471AB183890B4310
:1014C000838102E083898B438381704701894FF6D2
:1014D000F8721140018170470A46002101894FF6D8
:1014E0008F73194011430181704730B504460D4692
:1014F00029462046FFF7F0FF208940F007002081B1
:1015000030BD2DE9F04104460D4616461F46602DBC
:1015100006D13B46012231462046FFF75AFE05E040
:101520003B46012231462046FFF79DFE29462046D4
:10153000FFF7D2FF208940F007002081BDE8F0814D
:1015400030B50C4600210189C9B24FF6FF7505EA96
:101550000325154325432943018130BD2DE9F04181
:1015600005460E4617469846002443463A463146FD
:101570002846FFF7E5FF2C894FF6F870044044F049
:1015800007044FF68F70044044F070042C81BDE8CE
:10159000F081F0B504460D4616461F463B463246DE
:1015A00029462046FFF7CCFF208940F48040208167
:1015B000F0BD0185828270470A46002101884FF6FE
:1015C0008F731940114301807047F0B50C461546E2
:1015D0001E460021002200230189028B038C4FF656
:1015E000F877394021434FF6FC473A4040F2011763
:1015F0003A434FF6DD773B404FF6FF7707EA061791
:101600002F433B43018102830384F0BD0A4600213E
:10161000018B4FF68F7319401143018370470A46BF
:101620000021018B48F6FF7319404FF6FF7303EA60
:1016300002231943018370470A460021818B4FF62C
:101640008F7319401143818370470A460021818BB3
:1016500048F6FF7319404FF6FF7303EA022319435C
:101660008183704721B1028842F08002028004E049
:1016700002884FF67F731A400280704721B182883A
:1016800042F00402828004E082884FF6FB731A4025
:101690008280704721B1828842F00802828004E093
:1016A00082884FF6F7731A408280704721B1828892
:1016B00042F00102828004E082884FF6FE731A40F5
:1016C000828070470A460021018B4FF6F77319405C
:1016D0001143018370470A460021018B4FF2FF73CB
:1016E00019404FF6FF7303EA022319430183704741
:1016F0000A460021818B4FF6F7731940114381830D
:1017000070470A460021818B4FF2FF7319404FF654
:10171000FF7303EA02231943818370470A460021BD
:10172000018B4FF6FB7319401143018370470A4642
:101730000021018B4FF6FF3319404FF6FF7303EA88
:1017400002231943018370470A460021818B4FF61B
:10175000FB7319401143818370470A460021818B36
:101760004FF6FF3319404FF6FF7303EA0223194384
:10177000818370470A460021018B4FF67F73194021
:101780001143018370470A460021018BC1F30E010A
:101790004FF6FF7303EA02231943018370470A4699
:1017A0000021818B4FF67F7319401143818370476D
:1017B0000A460021818BC1F30E014FF6FF7303EA45
:1017C00002231943818370470A460021018C4FF69A
:1017D000FD7319401143018470470A460021018CB2
:1017E0004FF6F77319401143018470470A460021F0
:1017F000018C4FF6DF7319404FF6FF7303EA0213B3
:101800001943018470470A460021018C4FF67F730B
:1018100019404FF6FF7303EA02131943018470471E
:101820000A460021018C4FF6FF5319404FF6FF7313
:1018300003EA02231943018470470A460021018C00
:101840004FF2FF7319404FF6FF7303EA0223194367
:10185000018470470A460021018C4DF6FF73194040
:101860004FF6FF7303EA023319430184704730B522
:10187000002301248C40A3B2048C9C430484048C78
:1018800002FA01F5ADB22C43048430BD30B500231B
:1018900004248C40A3B2048C9C430484048C02FA7C
:1018A00001F5ADB22C43048430BD70B50346002071
:1018B00000241846183001258D40ACB21D8CA5437C
:1018C0001D8409B1082909D100EB6100056825F0E4
:1018D000700505600568154305600EE00D1FC5F332
:1018E0004E052844056825F4E045056005684FF677
:1018F000FF7606EA02263543056070BD21B10288F5
:1019000042F00202028004E002884FF6FD731A40A2
:101910000280704721B1028842F00402028004E094
:1019200002884FF6FB731A400280704721B182880B
:1019300042F08002828004E082884FF67F731A4072
:101940008280704702884FF6F7731A40028002883F
:101950000A430280704782884FF68F731A40828054
:1019600082880A438280704702894FF6F8731A40D2
:10197000028102890A430281704702894FF67F7310
:101980001A40028102890A430281704781847047AC
:1019900081857047818670470187704781877047CE
:1019A000A0F84010704702884FF6FF431A400280AB
:1019B00002880A43028070470146888E70470146BC
:1019C000088F70470146888F70470146B1F8400084
:1019D00070470146888C70470146088D7047024663
:1019E0000020138A0B400BB1012000E0002070475B
:1019F000CA430282704730B502460020002300240B
:101A0000158A05EA0103958905EA010413B10CB1B1
:101A1000012000E0002030BDCA4302827047000070
:101A200010B50446FB48844209D101218803FFF721
:101A30009FF800214FF48040FFF79AF832E0F64813
:101A4000844209D101214804FFF79FF800214FF497
:101A50000030FFF79AF825E0F048844209D10121CF
:101A60008804FFF792F800214FF48020FFF78DF8EB
:101A700018E0EB48844209D10121C804FFF785F83A
:101A800000214FF40020FFF780F80BE0E548844286
:101A900008D101210805FFF778F800214FF48010E4
:101AA000FFF773F810BD2DE9F04786B005460E46E6
:101AB0000024A24600BFA1460027B08900B100BFA4
:101AC0002F462C8A4CF6FF700440F08804432C8289
:101AD000AC894EF6F3100440B0883189084371890F
:101AE00008430443AC81AC8A4FF6FF400440B08900
:101AF0000443AC8201A8FEF7B4FFC648874202D176
:101B0000DDF810A001E0DDF80CA0A88900F4004089
:101B100040B10AEBCA0000EB0A1031684900B0FB83
:101B2000F1F807E00AEBCA0000EB0A1031688900FF
:101B3000B0FBF1F86420B8FBF0F004012009642147
:101B400001FB1089A88900F4004040B1322000EB6D
:101B5000C900B0FBF1F000F00700044308E03220B8
:101B600000EB09106421B0FBF1F000F00F0004431A
:101B70002C8106B0BDE8F0874FF4165101600021BA
:101B80008180C18001810C214181002181817047C8
:101B900010B502460020108A4FF2FF0318400B8850
:101BA0004C8823438C882343CC88234318431082DA
:101BB00010BD0021018041808180C180704721B12A
:101BC000828942F40052828104E082894DF6FF73DB
:101BD0001A4082817047F0B5034600240026002594
:101BE000002040F66A17B94200D100BF1846C1F381
:101BF000421401F01F06012707FA06F5012C01D156
:101C00000C3004E0022C01D1103000E014301AB185
:101C100007682F43076002E00768AF430760F0BD25
:101C20001AB1838A0B43838202E0838A8B438382C7
:101C30007047028A4FF6F0731A400282028A0A4302
:101C40000282704782894FF2FF731A408281828933
:101C50000A438281704721B1828942F00202828167
:101C600004E082894FF6FD731A4082817047028A30
:101C70004FF6DF731A400282028A0A4302827047DB
:101C800021B1028A42F48042028204E0028A4BF6C9
:101C9000FF731A4002827047C1F3080282807047C6
:101CA00001468888C0F308007047818941F001012E
:101CB00081817047028BD2B20283028B42EA0122F9
:101CC00002837047028B02F47F420283028B0A4335
:101CD0000283704721B1828A42F02002828204E0AE
:101CE000828A4FF6DF731A408282704721B1828A5E
:101CF00042F01002828204E0828A4FF6EF731A40AB
:101D00008282704721B1828A42F00802828204E016
:101D1000828A4FF6F7731A408282704721B1828916
:101D200042F40042828103E08289C2F30E02828182
:101D3000704721B1828A42F40062828204E0828A82
:101D40004FF2FF731A4082827047828A4FF6FB730C
:101D50001A408282828A0A438282704721B1828A33
:101D600042F00202828204E0828A4FF6FD731A403A
:101D70008282704702460020B1F5007F00D100BF8B
:101D800013880B400BB1012000E00020704701F4E4
:101D90000072B2F5007F00D100BFCA4302807047D5
:101DA00070B50246002400230025002040F66A1684
:101DB000B14200D100BFC1F3421501F01F0301265B
:101DC00006FA03F3012D02D19689334006E0022D75
:101DD00002D1168A334001E0968A33400C12012664
:101DE00006FA04F41688344013B10CB1012000E067
:101DF000002070BD10B50022002340F66A14A142F5
:101E000000D100BF0A1201249440A3B2DC43048035
:101E100010BD000000380140004400400048004070
:101E2000004C00400050004010B56FF00400FEF779
:101E30004AFB2E4800682E49B0FBF1F02D4908708E
:101E40000846007800EB4001C1EBC0104FF6FF716F
:101E500001EAC0002849088010BD0146254A1278D1
:101E60004A434FF0E0235A6100229A611A461269F0
:101E700042F001021A6100BF4FF0E022106900F049
:101E800001021AB100F48032002AF5D04FF0E022AE
:101E9000126922F001024FF0E0231A6100229A61D8
:101EA00070470146144A12884A434FF0E0235A61B2
:101EB00000229A611A46126942F001021A6100BFBB
:101EC0004FF0E022106900F001021AB100F48032F4
:101ED000002AF5D04FF0E022126922F001024FF003
:101EE000E0231A6100229A61704700000000002080
:101EF00000127A00280000202A00002010B50446B5
:101F00002848844204D101210420FEF717FE16E080
:101F10002548844204D101210820FEF70FFE0EE07F
:101F20002248844204D101211020FEF707FE06E07A
:101F30001F48844203D101212020FEF7FFFD10BD80
:101F400030BF704772B6704762B670472DE9F041F6
:101F500004460D462946204601F00FFB80464046C8
:101F600001F070F90646134A134B01F035F90BD80E
:101F7000404601F067F906460E4A104B01F09CF806
:101F800002D80020BDE8F081404601F05BF906462A
:101F9000084A0A4B01F020F901D20120F2E74FF084
:101FA000FF30EFE700080140000C01400010014045
:101FB000001401402D431CEBE2361ABFE2361A3FF3
:101FC00000BF704700BF4A4A128802F04002002A50
:101FD000F9D0C2B2464B1B1D1A80704710B586B0AF
:101FE0000446012144F20400FEF7A8FD4FF40070FE
:101FF000ADF8140003208DF8160018208DF8170096
:1020000005A93C48FEF7DEFA4FF48060ADF81400F5
:1020100004208DF8170005A93648FEF7D3FA2520CD
:102020008DF8000003208DF801008DF802000120DA
:102030008DF803006846FEF7FCF901940020ADF826
:102040000800ADF80A00ADF80C00ADF810000C2047
:10205000ADF80E0001A92648FFF725FD012240F248
:1020600025512348FFF7B7FD01212148FFF7A7FDC0
:1020700006B010BD10B540F225511D48FFF790FE87
:1020800010B31B48FFF70CFEC4B21B48008800F4D5
:102090000040C8B91848008800F4804060B10A2C9C
:1020A00003D000201449088020E01348008840F441
:1020B00000401149088019E00D2C06D10E48008817
:1020C00040F480400C49088010E00B480088C0F3C1
:1020D0000D000A490C5408480088401C0649088035
:1020E00008460088C72801DD0020088010BD0000D8
:1020F0000038014000080140300000203800002076
:10210000032000BF0100A0F10102D0B2FAD1704754
:1021100010B52021F848FEF704FB8021F648FEF7B1
:10212000FEFAFFF7EDFF2021F348FEF7F8FA10BDA5
:1021300010B52021F048FEF7F2FAFFF7E1FF802109
:10214000ED48FEF7ECFAFFF7DBFF8021EA48FEF7E7
:10215000E8FAFFF7D5FF10BD70B5044600251BE077
:1021600004F0800020B12021E348FEF7D8FA03E014
:102170002021E148FEF7D5FAFFF7C2FF8021DE48B3
:10218000FEF7CDFAFFF7BCFF8021DB48FEF7C9FA66
:102190006006040E681CC5B2082DE1DB70BD10B5E9
:1021A0002021D548FEF7BBFA8021D348FEF7B7FAC5
:1021B000FFF7A6FF2021D048FEF7B3FAFFF7A0FFF4
:1021C0008021CD48FEF7ADFAFFF79AFF10BD70B53C
:1021D00005460C46FFF7E3FF7820FFF7BDFFFFF74A
:1021E000A7FF1CB14020FFF7B7FF02E00020FFF778
:1021F000B3FFFFF79DFF2846FFF7AEFFFFF798FFFD
:10220000FFF786FF70BD10B504461CB90021A6205B
:10221000FFF7DDFF012C03D10021A720FFF7D7FF37
:1022200010BD10B504463CB90021C820FFF7CFFF10
:102230000021A120FFF7CBFF012C07D10021C020F6
:10224000FFF7C5FF0021A020FFF7C1FF10BD10B5AB
:1022500000218D20FFF7BBFF00211420FFF7B7FFFF
:102260000021AF20FFF7B3FF10BD10B500218D2076
:10227000FFF7ADFF00211020FFF7A9FF0021AE20DE
:10228000FFF7A5FF10BD70B500242BE004F1B001ED
:10229000C8B20021FFF79BFF00210846FFF797FF18
:1022A00000211020FFF793FFFFF779FF7820FFF759
:1022B00053FFFFF73DFF4020FFF74EFFFFF738FFCA
:1022C000002509E08D4901EBC501085DFFF744FFDA
:1022D000FFF72EFF681CC5B2802DF3DBFFF718FF58
:1022E000601CC4B2082CD1DB70BD70B500240CE0BA
:1022F000002506E00020814901EBC5010855681C56
:10230000C5B2802DF6DB601CC4B2082CF0DBFFF7F1
:10231000BAFF70BDF0B514460B46CF1701EB5777E7
:10232000C7F3C702CF1701EB5777FF10A1EBC70721
:10233000FEB20123B340DDB24CB1704B03EBC003DE
:102340009B5C2B436D4F07EBC007BB541AE06B4BF4
:1023500003EBC0039B5CDB43684F07EBC007BB5438
:10236000664B03EBC0039B5C2B43644F07EBC0073A
:10237000BB54624B03EBC0039B5CDB435F4F07EB3B
:10238000C007BB54F0BD2DE9FF4F84B081468A469B
:102390000020029083460698A0EB09040798A0EB62
:1023A0000A06CDF80490CDF800A0002C01DD01272D
:1023B00005E00CB9002702E04FF0FF376442002E21
:1023C00002DD4FF0010806E016B94FF0000802E008
:1023D0004FF0FF386642B44201DD254600E0354645
:1023E000002003901EE0009AD1B2019AD0B2119A57
:1023F000FFF790FF029820440290B3440298A8424D
:1024000005DD0298401B0290019838440190AB45CD
:1024100004DDABEB050B0098404400900398401C92
:1024200080B20390691C03988842DCDB08B0BDE8E9
:10243000F08F2DE9F04306460F46904600254446AE
:1024400043E03A1BD1B27219D0B20122FFF762FF0A
:102450003A1BD1B2721BD0B20122FFF75BFF3A19CF
:10246000D1B2721BD0B20122FFF754FF3A19D1B298
:102470007219D0B20122FFF74DFF7A19D1B2321989
:10248000D0B20122FFF746FF7A1BD1B23219D0B287
:102490000122FFF73FFF7A1BD1B2321BD0B20122DB
:1024A000FFF738FF7A19D1B2321BD0B20122FFF701
:1024B00031FF6D1C05FB05F004FB040008FB180947
:1024C000B9F1000F01DD641E6D1E6000604308FB62
:1024D00008F18842B5DABDE8F0832DE9FE4F0746E2
:1024E000884692461C460197CDF80080082C07D1FB
:1024F0004FF0060924E00000000801400001002020
:102500002046E31704EB5373DB1021464FEAE47CCB
:1025100004EB5C7C4FEAEC0CA4EBCC0CBCF1000FA0
:1025200002D04FF0010C01E04FF0000C6344224652
:1025300004EBD27C4FEA6C0C03FB0CF303F0FF09B5
:10254000AAF12000C6B200255EE0082C07D106EBF8
:102550004600FE4901EB400010F805B01DE00C2CD0
:1025600007D106EB4600FA4901EB800010F805B0F0
:1025700013E0102C05D1F74800EB061010F805B059
:102580000BE0182C07D106EBC600F34901EB8000E5
:1025900010F805B001E0BDE8FE8F002002901CE0BD
:1025A0000BF0010028B1414638460C9AFFF7B2FE05
:1025B00009E00C9808B9012000E0002002464146DD
:1025C0003846FFF7A7FE4FEA6B0B08F1010000F059
:1025D000FF080298401CC0B2029002980828DFDB76
:1025E000781CC7B2082C0BD004EBD4714A100199A7
:1025F000791A8A4204D1019F00980830C0B2009035
:10260000DDF80080681CC5B24D459EDB00BFC2E707
:102610002DE9F84106460F4614461D46DDF81C809C
:1026200013E0CDF8008022782B4639463046FFF77C
:1026300054FF082D02D1B01DC6B205E0284605EBB7
:10264000D07106EB6101CEB2641C2078202802DB39
:1026500020787E28E5DDBDE8F88110B5024601202E
:1026600000E050430B00A1F10104E1B2F9D110BD2B
:102670002DE9FF4F82B0064691461F46DDE90F4A1D
:102680004FF0000B082C01D14FF0020B002530E079
:10269000781B401EC1B20A20FFF7DFFFB9FBF0F044
:1026A0000A21B0FBF1F201FB1208B8F1000F0ED1C4
:1026B00004EBD4710BEB610101FB0561C8B2234649
:1026C0003022CDE900A40399FFF707FF0FE004EBE8
:1026D000D4710BEB610101FB0561C8B208F1300157
:1026E000CAB22346CDE900A40399FFF7F6FE681CA1
:1026F000C5B2BD42CCDB06B0BDE8F08F2DE9FC4F82
:102700000746884616461C46BB46CDF80480204640
:10271000E21704EB5272D2102146E31704EB537315
:10272000DB10A4EBC3030BB1012300E000231A4428
:10273000624392B20092002555E0102C05D18748E3
:1027400000EB461010F805A01BE0182C07D106EB93
:10275000C600834901EBC00010F805A011E0202C51
:1027600005D1804800EBC61010F805A009E0402C08
:1027700005D17D4800EB462010F805A001E0BDE83A
:10278000FC8F4FF000091CE00AF0010028B141461F
:1027900038460B9AFFF7BEFD09E00B9808B90120F7
:1027A00000E00020024641463846FFF7B3FD4FEAFD
:1027B0006A0A08F1010000F0FF0809F1010000F0C9
:1027C000FF09B9F1080FDFDB781CC7B2A7EB0B00DC
:1027D000A04204D15F4601980830C0B20190DDF8F4
:1027E0000480681C85B200988542A6DB00BFC6E75E
:1027F00008B5804689469246002600274BE04FB92F
:102800001023324618218020CDF800A0FFF776FF74
:10281000701CC6B2464522D14FF0000B1AE00124CD
:1028200010E000250AE0514800EBC400415D601E45
:102830004E4A02EBC0004155681CC5B2082DF2DBC0
:10284000601CC4B2902CECDBFFF71DFD0BF1010006
:1028500000F0FF0B4FEA09105845E0DC0026781C19
:10286000C7B2102F00D10027012410E000250AE094
:102870003E4800EBC400415D601E3C4A02EBC000D4
:102880004155681CC5B2082DF2DB601CC4B2902C07
:10289000ECDBFFF7F8FCB2E72DE9FF4F05460E46EB
:1028A00017461C46DDF838904FF0000A0095B346F5
:1028B0002046E21704EB5272D2102146E31704EBD4
:1028C0005373DB10A4EBC3030BB1012300E000231F
:1028D0001A44D4B24FF0000858E0002003904EE0B4
:1028E0000D9810F80A0002900AF101001FFA80FA10
:1028F000002001901DE0029800F0010028B14A4636
:1029000031462846FFF706FD0AE0B9F1000F01D174
:10291000012000E00020024631462846FFF7FAFC7D
:10292000029840100290701CC6B20198401CC0B2C0
:10293000019001980828DEDB681CC5B20098281AAF
:10294000B84217D1009D0BF1080011E07A3600085B
:10295000A2380008163D000806430008625000082F
:10296000C25500080A5600088A56000800010020D7
:1029700000F0FF0B5E460398401CC0B20390039822
:10298000B842ADDB08F1010000F0FF08A045A4DB70
:10299000BDE8FF8F08B54D48FFF7B0FAA020ADF8AD
:1029A000000014208DF8030003208DF80200694612
:1029B0004648FDF707FEA0214448FDF7B0FE04207D
:1029C000ADF8000010208DF8030003208DF8020000
:1029D00069463E48FDF7F6FD04213C48FDF79FFEA1
:1029E00004213A48FDF79DFEC820FFF75AFA04215A
:1029F0003648FDF794FE0021AE20FFF7E8FB0021EA
:102A00000846FFF7E4FB00211020FFF7E0FB002160
:102A10004020FFF7DCFB00218120FFF7D8FB0021DD
:102A2000CF20FFF7D4FB0021A120FFF7D0FB00212E
:102A3000C820FFF7CCFB0021A620FFF7C8FB002130
:102A4000A820FFF7C4FB00213F20FFF7C0FB0021B7
:102A5000D320FFF7BCFB00210846FFF7B8FB00219D
:102A6000D520FFF7B4FB00218020FFF7B0FB002149
:102A7000D920FFF7ACFB0021F120FFF7A8FB0021D4
:102A8000DA20FFF7A4FB00211220FFF7A0FB0021B2
:102A9000DB20FFF79CFB00213020FFF798FB002193
:102AA0002020FFF794FB00210220FFF790FB00217C
:102AB0008D20FFF78CFB00211420FFF788FBFFF728
:102AC00014FC0021AF20FFF782FB08BD0008014085
:102AD00000B585B000205A49086001210220FEF7A8
:102AE0003AF85848FFF70AFA10208DF81300000151
:102AF000ADF8100003208DF8120004A95148FDF72D
:102B000061FD04208DF81300C001ADF8100004A988
:102B10004C48FDF757FD40F2E730ADF8080047207C
:102B2000ADF804000020ADF80A00ADF8060001A9D8
:102B30004548FEF73BF9012211464348FEF7ADFC3C
:102B40001D208DF8000000208DF8010003208DF875
:102B5000020001208DF803006846FDF76AFC0021A1
:102B60003948FEF77FFC05B000BD2DE9F05F002479
:102B7000A146A34648E00120344908601420FFF72D
:102B80006CF900203249C1F8A00100BF4FF4007178
:102B90002C48FDF7AAFD0028F8D001212A48FEF7AD
:102BA00061FC00BF4FF400712648FDF79EFD01282F
:102BB000F8D000212448FEF755FC2348FEF709FF12
:102BC00082461F49096801EB4102C2EBC1110AEBC1
:102BD000C10000F05DFA074600221E4B00F000F92C
:102BE000054600F0BFF804464946204600F056FB73
:102BF000814600201449243108801149086064206E
:102C0000FFF74FF90BF1010BBBF1050FB3D11249DF
:102C1000484600F0A5FB04462046BDE8F09F10B5ED
:102C200001210948FEF7E7FE40B101210648FEF701
:102C3000F3FE03480068401C0149086010BD000015
:102C400034000020000C014000040040A08121421B
:102C50000080214200004D400000A040704700006D
:102C60000FB4044910B503AA029800F009F810BC8B
:102C70005DF814FB2C0000207047704770477047C8
:102C8000074B70B50D467B4400F011F8044628460A
:102C900000F020F810B14FF0FF3070BD204670BD3D
:102CA0003BF3FFFF01694A1C02610878704700B5D9
:102CB0008FB0CDE901310021059105497944CDE975
:102CC00003101146684600F02EF80FB000BD00005A
:102CD000E5FFFFFF007B00F080007047754600F0C5
:102CE0003DF8AE4605006946534620F0070085468C
:102CF00018B020B5FDF786FBBDE820404FF0000678
:102D00004FF000074FF000084FF0000B21F00701D3
:102D1000AC46ACE8C009ACE8C009ACE8C009ACE816
:102D2000C0098D4670472DE9F04106460024D6E9DA
:102D30000170F5688046304603E04146B847641CA0
:102D40003046A8470028F8D12046BDE8F081044667
:102D5000AFF300802046FDF710FA000000487047EE
:102D60008005002021F00042A2F16052B2F5801FE0
:102D700001F0004328BFD2F17F6C0BD95FEA001C41
:102D800043EAC20242EB507018BF704728BF20F0E0
:102D900001007047B2F5801FBCBF184670474FEA6C
:102DA000410C1CF5001F02D2084600F0E1BB70B5D3
:102DB00000F0BEF900000089FFF7F6BF4FF00040B9
:102DC000A0F580007047491058BFC1F140415B1029
:102DD00058BFC3F140438B42EFF3008070470000BF
:102DE0002DE9C04130B4DFF8A0C23CEA111418BF8D
:102DF0003CEA131400F0EC8081EA03051CEA11148C
:102E000044EAD57418BF1CEA131500F0C780A4EB80
:102E100005044FF0004545EAC12145EAC32341EAD4
:102E2000505143EA525304F17F74994204F500343F
:102E30004FEAC0204FEAC22208BF904200F09C80B7
:102E40004FEA13650FF24016765D4FEA134506FB15
:102E500005F7C7F1807706FB07F74FEAD737A7FBDF
:102E600003687642C8F58038A7FB06CE38BFA8F1C4
:102E7000010807FB08E64FF0000EA6FB028CE6FBFC
:102E800003CEDCF1000CCEF1004E38BFAEF1010EE6
:102E9000A6FB0C584FF000074FF00005E6FB0E872D
:102EA000A1FB08C6A0FB07CE16EB0E0645F10005F8
:102EB000E1FB076515F1E04E7EBFA4F580345FEAC3
:102EC00046066D4116F1800745F100054FEA1727C8
:102ED0004FEA066647EA0567A6F1DE46B6F1805F6F
:102EE0004FEA15251FD9384624F0010C05EBC471B3
:102EF000BCF1FE6F01EB0C1102D8F0BCBDE8008103
:102F000024425CBF01F5801E9EEAC47F02D4F0BC5F
:102F1000BDE80081244238D4F0BCA1F1C041BDE835
:102F2000004100F053B94FEAD22242EA43524FEA3D
:102F3000D323A7FB02864FEAD02040EA415007FB8B
:102F400003661EEA0E0F4FEAD12105FB026658BF49
:102F5000A6EB0056B6EB00564FEA520E4EEAC37E81
:102F600018EB0E0E56EB530EBDD518EB02085E4162
:102F70007F1C55F10005B6E74FF480154FF00007B0
:102F80004FF000064FF00008ADE7F0BC4FF0000036
:102F900001F1C04101F00041BDE8008111EA0C1FC0
:102FA0000CEA131500D00CE013EA0C1F00F025808A
:102FB0004FF00000F0BC81EA030101F00041BDE8E0
:102FC0000081F0BCBDE8004181EA030100F0FEB8D9
:102FD000F0BCBDE8004170B500F0AAF8097EFC3EE7
:102FE00000F007B881EA03014FF0000001F0004152
:102FF000704781EA030100F0E9B8F0BCBDE8004188
:103000004FF0000021497047FFFDFBF9F7F5F4F29E
:10301000F0EEEDEBE9E8E6E4E3E1E0DEDDDBDAD873
:10302000D7D5D4D3D1D0CFCDCCCBCAC8C7C6C5C4D1
:10303000C2C1C0BFBEBDBCBBBAB9B8B7B6B5B4B3E8
:10304000B2B1B0AFAEADACABAAA9A8A8A7A6A5A4D3
:10305000A3A3A2A1A09F9F9E9D9C9C9B9A99999897
:103060009797969595949393929191908F8F8E8E3A
:103070008D8C8C8B8B8A89898888878786858584C7
:1030800084838382828181800000FF070000F87FB3
:10309000B0FA80F310FA03F10AD0C3F11D0303F56F
:1030A00080634FEA41504FEA035202EBD12170474F
:1030B0004FF000007047000051EA030C17D41CF5D4
:1030C000801F58BFBCF5801F00F10680994218BFD1
:1030D000704708BF9042704707D711F5801F58BF4F
:1030E00013F5801F19D499427047894270471CF527
:1030F000801F08D5BCF5801FF7D58B4218BF7047DD
:1031000008BF824270474FF4001C1CEB410F38BFD0
:103110001CEB430F01D28B42704770B500F008F8EA
:10312000922449004FF000514FF08053FFF74BBEFF
:103130000EF1020E2EF0030E5EF8046B364205D43B
:10314000012A43EB030515F5001F12D8012841EBB6
:10315000010C1CF5001F0CD80ED14FEAD17C15F5DF
:10316000001F0CEB4C0C0CF1020C08BF4CEBD37C99
:1031700004E04FF0080C01E04FEAD37C0CEB4C0567
:1031800026FA05F606F00706B6F1040C06D20EEB99
:10319000860CBDE870404CF0010C6047DFE80CF095
:1031A000090B02024FF000414FF00000A1F5002191
:1031B00070BD19461046012851EB010418BFD4F523
:1031C000001484BF002001F0004170BD0808A0F584
:1031D00000114FEA3101704753EA010C17D41CF576
:1031E000801F58BFBCF5801F00F106808B4218BFBE
:1031F000704708BF8242704707D713F5801F58BF3A
:1032000011F5801F19D48B4270479B4270471CF503
:10321000801F08D5BCF5801FF7D5994218BF7047AD
:1032200008BF904270474FF4001C1CEB430F38BF9F
:103230001CEB410F01D2994270470FB40CBC03BC88
:10324000FFF76BBF43004FEAD30C4FEA3C0C4340FF
:103250001FBF40070CF1605113F0FE4F70471CF088
:10326000006F03D100200CF0004170470CF00043C8
:1032700043EA507010B540EACC0000F033F900BFCB
:10328000000000924FEA0001FFF7A0BF4FF000419D
:103290004FF00000A1F500217047000090EA010FF7
:1032A00048BF81F0004100F17A81421A3CBF801A88
:1032B00089184FEAD0524FF07F4C1CEA410FA2EB25
:1032C000D15318BF9CEA026F00F03B804FF0004CD6
:1032D0004CEA00204CEA012121FA03FC10EB0C0C13
:1032E0001ED202F1FF325FEA1C2040EBC25038BF11
:1032F00070471CF07F0F4FEA400C18BFBCF17F4FA6
:1033000038BF7047C3F12003994008BF20F0010087
:10331000BCF17F4F38BF7047A0F1C04000F028B922
:103320004FEA3C00000A40EBC25028BF1CF0FF0FE0
:103330004FEA400CE6D018BFBCF17F4F38BF704752
:10334000EAE79CEA026F05D010EA5C0F08BF00F0C4
:103350000040704710B500F0C5F800BF64FBBE3EEA
:103360004FF47F0C1CEAD0121EBF1CEAD11392EA64
:103370000C0F93EA0C0F00F0858090EA010F48BF14
:1033800042F4807240F4000C41F400002CF07F41C4
:1033900020F07F4000B58142A2EB03020FF2081C2F
:1033A000ACEB504EC0F100009EF800E04FEA4E0E2C
:1033B00000FB0EFC38BF49004FEA2C1C02F5FA0254
:1033C0000CFB0EF34FEACE1E4FEA112C4FEAC1213F
:1033D0000EEB635E42EB22420EFB0CFC4FEA1C53E9
:1033E00000FB03114FEA112C4FEA01310EFB0CFCDC
:1033F0004FEADC4C00FB0C11C14228BF09184CEB12
:1034000003335DF804EB10EB410143EBC250B2F51E
:103410007C0F38BF704729D512F0F00F1CBF00F1A8
:10342000C04000F000407047008182838485868719
:1034300088898B8C8D8E8F919293959697999A9C73
:103440009D9FA0A2A3A5A7A8AAACAEB0B2B3B5B7E2
:10345000B9BCBEC0C2C5C7C9CCCED1D4D7D9DCDFB8
:10346000E2E6E9ECF0F3F7FAFE0000004FEA400C68
:103470000CF1807CBCF17E4F28BF7047B0F1C0409A
:1034800000F076B890EA010F0CEAD11348BF42F47D
:103490008072624538BF634507D213F47F0F16D0A0
:1034A00080EA010000F00040704710B500F01AF803
:1034B000097EFC3E00F005B880EA010000F0004003
:1034C000704780EA010000F0004000F051B812F4AB
:1034D0007F0F04BF0248704780EA010000F048B83F
:1034E0000000C07F0EF1020E2EF0030E5EF8044BBA
:1034F000244204D44FEA4102B2F17F4F11D84FEA7F
:103500004003B3F17F4F0CD80ED14FEAD07CB2F11B
:103510007F4F0CEB4C0C0CF1020C08BF4CEBD17C38
:1035200004E04FF0080C01E04FEAD17C0CEB4C03B7
:1035300024FA03F404F00704B4F1040C06D20EEBF1
:10354000840CBDE810404CF0010C6047DFE80CF043
:10355000070802024FF00040A0F5800010BD0846A9
:10356000420018BFD2F1807288BF00F0004010BD49
:10357000FF2141EAD050C005704780F0004090EA3A
:10358000010F7FF592AE81F0004100F008B8000015
:1035900090EA010F48BF81F000413FF586AE421A24
:1035A00004D882F00042A0EB020011444FEAD0524E
:1035B0004FF07F4C1CEA410FA2EBD15318BF9CEA9D
:1035C000026F4AD04FF0004C4CEA00204CEA012137
:1035D00021FA03FCB0EB0C0C0FD412F0FE0F36D026
:1035E0005FEA4C001DD5001240EBC25038BF704757
:1035F0001CF03F0F18BF70470BE0A2F101025FEA19
:103600001C2040EBC25038BF70471CF07F0F18BF22
:103610007047C3F12003994014BF401E20F0010001
:10362000704780084FEA122308BF7047B0FA80FC49
:10363000A2EB0C02CCF1280C60FA0CF093EA122FEA
:1036400004BF00EBC25070474FEAC3707047130AC3
:103650005FEADC1008BF7047F6E79CEA026F04D00F
:1036600010EA5C0F08BF0020704710B5FFF73AFF63
:1036700040DFF63E81F0004070470000000000008F
:103680000000002F000000000700070000147F1456
:103690007F1400242A7F2A12006264081323003654
:1036A0004955225000000503000000001C22410083
:1036B000000041221C000014083E08140008083EC7
:1036C0000808000000A060000008080808080000C2
:1036D00060600000002010080402003E5149453E91
:1036E0000000427F400000426151494600214145AF
:1036F0004B31001814127F10002745454539003C16
:103700004A494930000171090503003649494936E3
:1037100000064949291E00003636000000005636D2
:1037200000000008142241000014141414140000B6
:103730004122140800020151090600324959513E44
:10374000007C1211127C007F49494936003E4141FC
:103750004122007F4141221C007F49494941007FAD
:1037600009090901003E4149497A007F0808087F9C
:103770000000417F4100002040413F01007F0814CC
:103780002241007F40404040007F020C027F007FCA
:103790000408107F003E4141413E007F09090906AF
:1037A000003E4151215E007F0919294600464949E2
:1037B00049310001017F0101003F4040403F001FAF
:1037C0002040201F003F4038403F0063140814632E
:1037D00000070870080700615149454300007F4118
:1037E000410000552A552A55000041417F00000440
:1037F0000201020400404040404000000102040079
:10380000002054545478007F4844443800384444DD
:10381000442000384444487F003854545418000869
:103820007E0901020018A4A4A47C007F0804047887
:103830000000447D4000004080847D00007F10280F
:1038400044000000417F4000007C04180478007CA4
:103850000804047800384444443800FC2424241824
:103860000018242418FC007C080404080048545460
:10387000542000043F444020003C4040207C001C79
:103880002040201C003C4030403C0044281028448C
:10389000001CA0A0A07C004464544C4414141414D4
:1038A00014140000000000000000000000000000F0
:1038B000FC000000000002000000000C020C0200EE
:1038C00000000000000090D0BCD0BC9000030003BA
:1038D00000001824FE448C00030207020100182493
:1038E000D8B04C80000300010201C038E438E00089
:1038F00001020201020208060000000000000000B0
:103900000000000000F804020000000102040002B0
:1039100004F800000004020100009060F8609000CC
:103920000000010000002020FC2020000000010019
:103930000000000000000000080600000000202039
:103940002020200000000000000000000000000017
:103950000002000000000080601C02000403000060
:103960000000F8040404F80001020202010000084B
:10397000FC00000000020302000018844424180028
:1039800003020202020008042424D80001020202F9
:10399000010040B088FC80000000000302003C24CD
:1039A0002424C400010202020100F824242CC000D7
:1039B0000102020201000C04E41C040000000300E8
:1039C0000000D8242424D800010202020100384457
:1039D0004444F8000003020201000000100000004F
:1039E00000000200000000002000000000000600AF
:1039F00000000020508804020000000001029090A6
:103A00009090900000000000000000020488502008
:103A10000002010000001804C42418000000020085
:103A20000000F804E494F80001020202020000E041
:103A30009CF0800002030000030204FC2424D80050
:103A4000020302020100F80404040C000102020255
:103A5000010004FC0404F80002030202010004FC5B
:103A600024740C0002030202030004FC24740C0002
:103A7000020302000000F0080444CC4000010202EE
:103A8000010004FC2020FC040203000003020404E3
:103A9000FC040400020203020200000404FC04040B
:103AA00006040403000004FC24D00C0402030200FA
:103AB000030204FC04000000020302020203FC3CB7
:103AC000C03CFC0003000300030004FC30C4FC0401
:103AD000020302000300F8040404F80001020202D9
:103AE000010004FC24241800020302000000F884F2
:103AF0008404F80001020207050004FC2464980015
:103B0000020302000302182424448C000302020270
:103B100001000C04FC040C0000020302000004FC81
:103B20000000FC04000102020100047C80E01C048F
:103B30000000030000001CE03CE01C000003000348
:103B40000000049C609C0400020300030200041CAB
:103B5000E01C04000002030200000C84641C04004A
:103B60000203020203000000FE020200000007043C
:103B70000400000E30C0000000000001020000023E
:103B800002FE00000004040700000004020400001C
:103B90000000000000000000000000000808080805
:103BA00008080000020000000000000000000040C3
:103BB000A0A0C00000010202030204FC2020C000FB
:103BC00000030202010000C0202060000001020288
:103BD000020000C02024FC0000010202030200C019
:103BE000A0A0C0000001020202000020F82424046A
:103BF0000002030202000040A0A0602000070A0AA1
:103C00000A0404FC2020C00002030200030200207A
:103C1000E4000000000203020000000020E40000B5
:103C200008080807000004FC80E0202002030200CE
:103C300003020404FC000000020203020200E02070
:103C4000E020C00003000300030020E02020C000AB
:103C500002030200030200C02020C0000001020293
:103C6000010020E02020C000080F0A02010000C06F
:103C70002020E0000001020A0F0820E04020200080
:103C80000203020000000060A0A020000002020267
:103C900003000020F820000000000102020020E0E4
:103CA0000020E00000010202030220E020806020EA
:103CB0000000030100006080E0806000000300035A
:103CC000000020608060200002030003020020E06A
:103CD000208060200808070100000020A06020006C
:103CE000000203020200000020DE020000000007C4
:103CF0000400000000FF00000000000F00000002B0
:103D0000DE2000000004070000000201020404029B
:103D100000000000000000000000000000000000A3
:103D2000000000000000000000F80000000000009B
:103D300000333000000000100C06100C06000000DC
:103D400000000000000040C07840C0784000043F00
:103D500004043F040400007088FC083000000018D0
:103D600020FF211E0000F008F000E01800000021F4
:103D70001C031E211E0000F00888700000001E2198
:103D800023241927211010160E0000000000000047
:103D9000000000000000000000E018040200000025
:103DA00000071820400000020418E0000000004056
:103DB000201807000000404080F0804040000202D0
:103DC000010F01020200000000F0000000000101EC
:103DD000011F01010100000000000000000080B090
:103DE0007000000000000000000000000000000162
:103DF000010101010101000000000000000000308D
:103E00003000000000000000000080601804006026
:103E100018060100000000E010080810E000000F84
:103E2000102020100F00001010F8000000000020EB
:103E3000203F202000000070080808887000003033
:103E400028242221300000300888884830000018DB
:103E5000202020110E000000C02010F800000007F4
:103E60000424243F240000F808888808080000196A
:103E7000212020110E0000E0108888180000000F9B
:103E8000112020110E0000380808C8380800000072
:103E9000003F000000000070880808887000001CC7
:103EA000222121221C0000E010080810E000000080
:103EB000312222110F00000000C0C00000000000ED
:103EC0000030300000000000008000000000000012
:103ED0008060000000000000804020100800000109
:103EE00002040810200040404040404040000404CC
:103EF0000404040404000008102040800000002096
:103F0000100804020100007048080808F0000000D2
:103F1000003036010000C030C828E810E000071863
:103F2000272423140B000000C038E0000000203CD0
:103F300023020227382008F8888888700000203F74
:103F4000202020110E00C03008080808380007188B
:103F500020202010080008F808080810E000203F82
:103F6000202020100F0008F88888E8081000203F63
:103F700020202320180008F88888E8081000203F37
:103F8000200003000000C0300808083800000718AF
:103F90002020221E020008F808000008F808203F30
:103FA000210101213F20000808F808080000002036
:103FB000203F2020000000000808F8080800C0800A
:103FC00080807F00000008F888C028180800203F83
:103FD00020012638200008F8080000000000203FDB
:103FE00020202020300008F8F800F8F80800203FD2
:103FF000003F003F200008F830C00008F808203FCC
:10400000200007183F00E01008080810E0000F101B
:10401000202020100F0008F808080808F000203FB2
:10402000210101010000E01008080810E0000F184D
:10403000242438504F0008F8888888887000203F72
:104040002000030C30200070880808083800003871
:10405000202121221C00180808F808081800000078
:10406000203F2000000008F808000008F808001FA2
:10407000202020201F000878880000C83808000091
:1040800007380E010000F80800F80008F800033CAB
:104090000700073C03000818688080681808203073
:1040A0002C03032C30200838C800C8380800000052
:1040B000203F2000000010080808C83808002038F9
:1040C000262120201800000000FE0202020000004D
:1040D000007F40404000000C30C0000000000000A5
:1040E00000010638C00000020202FE00000000408D
:1040F00040407F00000000000402020204000000B3
:1041000000000000000000000000000000008080AF
:104110008080808080800002020400000000000097
:104120000000000000000000808080800000001976
:10413000242222223F2008F8008080000000003F57
:10414000112020110E000000008080800000000E71
:10415000112020201100000000808088F800000E4F
:10416000112020103F200000808080800000001F70
:10417000222222221300008080F0888888180020E4
:10418000203F202000000000808080808000006BA5
:1041900094949493600008F8008080800000203F91
:1041A000210000203F20008098980000000000209F
:1041B000203F20200000000000809898000000C0F0
:1041C0008080807F000008F8000080808000203F11
:1041D00024022D302000000808F800000000002014
:1041E000203F202000008080808080808000203F51
:1041F00020003F20003F8080008080800000203F22
:10420000210000203F200000808080800000001FEF
:10421000202020201F00808000808000000080FF80
:10422000A12020110E000000008080808000000E80
:10423000112020A0FF8080808000808080002020CE
:104240003F2120000100000080808080800000333A
:10425000242424241900008080E0808000000000D5
:10426000001F202000008080000000808000001FD0
:10427000202020103F20808080000080808000016E
:104280000E300806010080800080008080800F30A2
:104290000C030C300F000080800080808000002024
:1042A000312E0E312000808080000080808080814F
:1042B0008E701806010000808080808080000021C0
:1042C000302C2221300000000000807C020200001F
:1042D0000000003F404000000000FF000000000020
:1042E0000000FF0000000002027C8000000000408F
:1042F000403F00000000000601010202040400002B
:1043000000000000000000000000000000000000AD
:10431000000000000000000000000000000000009D
:10432000000000000000000000000000000000F09D
:10433000F0F0000000000000000000017F0100001C
:10434000000000000000001C1C1C00000000000019
:104350008060301C8C60301C0C00000000000000ED
:10436000000000000000000000000000000000004D
:104370000000000000E00000000000E000000086F7
:10438000E69F86868686E69F860000011F01010162
:1043900001011F010100000080C06020F820E0C082
:1043A0000000000003070C18FF70E181000000000E
:1043B000070F10107F100F07000080602060800042
:1043C0000000E02000000F3020309F70DC371030FC
:1043D000C0000000100E03000718101807000000AE
:1043E000C02020E0C0000000000080E01F38E88707
:1043F00003C43C040000070F1810100B070D101029
:10440000080000808C4C3800000000000000000014
:10441000000000000000000000000000000000009C
:1044200000000000000000000000000080E03008F4
:1044300004000000000000FEFF010000000000007A
:1044400000000000030F1820400000040830E08046
:104450000000000000000000000001FFFE0000005E
:104460000000004020180F030000000000000000C2
:1044700000000000C00000000000004266663C181A
:10448000FF183C66664200000000000003000000C8
:10449000000000000000000080000000000000108C
:1044A00010101010FF10101010100000000000007D
:1044B00003000000000000000000000000000000F9
:1044C000000000000000000000000000000000806C
:1044D0008C4C3800000000000000000000000000CC
:1044E000000000000000001010101010101010103C
:1044F00010000000000000000000000000000000AC
:1045000000000000000000000000000000000000AB
:1045100000000000000000001C1C1C000000000047
:1045200000000000000000000000E0380C00000067
:10453000000080701C03000000000060380E0100C5
:10454000000000000000000080C060202060C080EB
:10455000000000FEFF010000000001FFFE0000015E
:10456000070E181010180E0701000000808080C090
:10457000E000000000000000000000FFFF0000005D
:10458000000000001010101F1F101010000000800D
:10459000402020202060C0800000000303008040F5
:1045A00020381F070000001C1A1918181818181FA7
:1045B00000000080C020202060C0800000000003B8
:1045C00003001010182FE780000000070F101010D4
:1045D00010180F070000000000000000C0E0F0000D
:1045E000000000C0B088868180FFFF80800000004E
:1045F00000000010101F1F1010000000E06060603D
:1046000060606060000000003F1008080818F0E0DB
:10461000000000070B101010101C0F03000000001A
:1046200080C040202020E0C0000000FCFF211008D6
:10463000080818F0E0000001070C18101010080F0F
:1046400003000000C0E06060606060E060000000A7
:1046500003000000E0180700000000000000001F39
:104660001F00000000000080C0602020202060C0EB
:1046700080000087EF2C1818303068CF83000007C7
:104680000F0810101010180F07000000C0C02020E5
:104690002020C0800000001F3F604040402010FFED
:1046A000FE0000000C1C101010080F03000000009A
:1046B0000000000000000000000000000000000EEC
:1046C0000E0E0000000000000000001C1C1C00007A
:1046D00000000000000000000000000000000000DA
:1046E0000000000C0C00000000000000000000585A
:1046F00038000000000000000000000000804020A2
:10470000100000001028448201000000000000009A
:10471000000000000102040810000000000000007A
:1047200000000000000000848484848484848484E5
:1047300084000000000000000000000000000000F5
:104740001020408000000000000000000000000079
:10475000018244281000000010080402010000003B
:10476000000000C020201010101030E0C000000336
:10477000030000F010080C070300000000001C1CE0
:104780001C0000000000000000C04060202020400D
:10479000C00000FCFF01F00E03C1FE03807F00019A
:1047A000070E08111110110904020000000080E03A
:1047B000E000000000000000807C4340477FF8805C
:1047C000000010181F1000000000131F1C1020E034
:1047D000E02020202060C080000000FFFF101010AB
:1047E00010182FE78000101F1F1010101010180F46
:1047F0000700000080C0402020202060E00000FC76
:10480000FF0100000000000001000001070E181069
:1048100010100804030020E0E02020202040C08089
:10482000000000FFFF000000000001FFFE00101F5D
:104830001F10101018080E07010020E0E0202020B3
:1048400020202060800000FFFF101010107C00006E
:104850000000101F1F10101010101018060020E08C
:10486000E020202020206060800000FFFF1010105A
:10487000107C00000100101F1F100000000000004D
:104880000000000080C06020202040E0000000FC0C
:10489000FF0100004040C0C140400001070E181059
:1048A00010100F0F000020E0E0200000000020E0CA
:1048B000E02000FFFF101010101010FFFF00101F6D
:1048C0001F1000000000101F1F100000202020E01B
:1048D000E020202000000000000000FFFF0000009A
:1048E000000000001010101F1F101010000000002A
:1048F0000000202020E0E020202000000000000038
:1049000000FFFF0000000060E0808080C07F3F006B
:10491000000020E0E020000020A06020200000FF38
:10492000FF30187CE3C000000000101F1F100000C3
:1049300001131F1C181020E0E02000000000000000
:10494000000000FFFF000000000000000000101F3A
:104950001F10101010101018060020E0E0E00000FA
:104960000000E0E0E02000FF013FFEC0E01E01FF8C
:10497000FF00101F1000031F0300101F1F1020E076
:10498000E0C0000000000020E02000FF0003071C42
:1049900078E08000FF00101F100000000000030FEF
:1049A0001F00000080C060202060C080000000FE6A
:1049B000FF010000000000FFFE000001070E1810BC
:1049C00010180C07010020E0E0202020202060C00B
:1049D000800000FFFF2020202020301F0F00101F2C
:1049E0001F100000000000000000000080C06020D8
:1049F0002060C080000000FEFF010000000000FFFA
:104A0000FE000001070E1111133C7C67210020E01D
:104A1000E0202020202060C0800000FFFF10103028
:104A2000F0D0080F0700101F1F10000000030F1C1C
:104A300010100080C060202020204040E0000007CF
:104A40000F0C1818303060E08100001F0C081010A7
:104A50001010180F07008060202020E0E0202020A8
:104A600060800100000000FFFF0000000001000066
:104A70000000101F1F100000000020E0E0200000D8
:104A800000000020E02000FFFF0000000000000008
:104A9000FF0000070F18101010101008070020600A
:104AA000E0E02000000020E060200000077FF880A8
:104AB00000807C03000000000000071F1C070000AE
:104AC000000020E0E02000E0E0200020E0200007DF
:104AD000FFF8E01FFFFCE01F00000000031F0300C1
:104AE000011F03000000002060E0A0000020E06043
:104AF0002000000000038F7CF8C6010000000010B9
:104B0000181E130001171F1810002060E0E020009D
:104B1000000020E06020000001073EF8E0180700D8
:104B2000000000000010101F1F1010000000008087
:104B30006020202020A0E0E0200000000000C0F065
:104B40003E0F0300000000101C1F1710101010185B
:104B500006000000000000FC04040404040000003F
:104B6000000000FF00000000000000000000007FC7
:104B7000404040404000000010E000000000000005
:104B8000000000000000031C608000000000000026
:104B90000000000000030C70800000000404040406
:104BA00004FC0000000000000000000000FF000006
:104BB0000000000040404040407F00000000000036
:104BC0000010080C040C0810000000000000000099
:104BD00000000000000000000000000000000000D5
:104BE00000000000000000000000000000000000C5
:104BF00000000000000000000000808080808080B5
:104C0000808080808080000000040408080000008C
:104C10000000000000000000000000000000000094
:104C20000000000000000000000000000000000084
:104C3000000000000000000098D844642424FCF820
:104C40000000000F1F18101010081F1F1018002060
:104C5000E0F000000000000000000000FFFF180866
:104C600004040CF8F00000001F0F18101010180FAB
:104C7000030000000000000000000000000000E051
:104C8000F8180404043C3800000000030F0C101056
:104C90001010080600000000000000000020E0F0F6
:104CA000000000E0F81C04040408FFFF00000003FB
:104CB0000F18101010081F0F08000000000000005F
:104CC0000000000000000000E0F8484444444C7834
:104CD00070000000030F0C181010100804000000F2
:104CE000000080C0602020E0C00000040404FFFF3A
:104CF000040404040000000010101F1F1010100016
:104D000000000000000000000000000000000000A3
:104D100070F88C04048CF874040C007076CF8D8DC0
:104D20008D89C87870000020E0F0000000000000CD
:104D300000000000FFFF08040404FCF8000000105D
:104D40001F1F100000101F1F100000000000006057
:104D50006000000000000000040404FCFC000000EF
:104D6000000000001010101F1F10101000000000A5
:104D7000000000000060600000000000000004046B
:104D800004FCFC0000000000C0C08080C07F3F0029
:104D900000000020E0F00000000000000000000023
:104DA000FFFF80C0F41C0404000000101F1F11004E
:104DB000031F1C1010000000202020E0F000000065
:104DC00000000000000000FFFF00000000000000E5
:104DD0001010101F1F101010000000000000000035
:104DE00000000000000004FCFC0804FCFC0804FCBB
:104DF000FC00101F1F10001F1F10001F1F100000BD
:104E0000000000000000000000000004FCFC080896
:104E10000404FCF8000000101F1F100000101F1FEA
:104E2000100000000000000000000000000000E092
:104E3000F0180C04040C18F0E00000030F0C101024
:104E400010100C0F03000000000000000000000024
:104E500000000004FCFC080404040CF8F0000080CE
:104E6000FFFF889010101C0F0300000000000000DE
:104E700000000000000000E0F81C04040408F8FC36
:104E8000000000030F1810109088FFFF8000000042
:104E900000000000000000000000040404FCFC10FE
:104EA0000804040C0C001010101F1F10101000003C
:104EB00000000000000000000000000000000000F2
:104EC0003078CCC48484840C1C0000001E181010A0
:104ED0001011190F06000000000000C000000000C3
:104EE000000000040404FFFF0404040000000000AC
:104EF00000000F1F1010100C000000000000000048
:104F00000000000000000004FCFE00000004FCFEA5
:104F1000000000000F1F181010081F0F08000000ED
:104F20000000000000000000000000040C3CFCC475
:104F30000000C43C0C0400000000010F1E0E010024
:104F40000000000000000000000000000000043C21
:104F5000FCC400E47CFC84807C040000071F070084
:104F600000071F0700000000000000000000000014
:104F700000000004041C7CE4C0341C040400001085
:104F8000101C1601131F1C18100000000000000068
:104F900000000000000000040C3CFCC400C43C0401
:104FA00004000000C080C1370E01000000000000B6
:104FB0000000000000000000000000001C0404C409
:104FC000F47C1C0400000000101C1F1711101018A6
:104FD0000E0000000000000000F80C0400000000BB
:104FE0000000001028EF000000000000000000009A
:104FF000003F60400000000000000000FF000000D3
:105000000000000000000000FF00000000000000A1
:1050100000000000FF00000000000000040CF80089
:1050200000000000000000000000EF281000000059
:105030000000000040603F00000000000000001879
:1050400006020204081020203008000000000000C2
:105050000000000000000000000000000000000050
:105060000000000000000000000000000000000040
:105070000000000000000000000000000000000030
:105080000000404042CC0040A09E8282829EA02030
:1050900020000000003F908840432C1028464180AB
:1050A0008000001715D55557557D555755D51517FF
:1050B00000004040407F555555555555557F40405F
:1050C000400000FC848484FC001010101010FF10BD
:1050D0001000003F1010103F0000010640807F00CC
:1050E000000000F8010600F0121212F2020202FEA5
:1050F000000000FF0000001F1111111F0040807F01
:1051000000000040424242C27E42C242424240400F
:105110000000804020100C0300003F4040404070E1
:105120000000884828090A28488880708F0808F8F5
:1051300008004020110A040B30804020130C33403B
:1051400080000000000000000000000000000000DF
:10515000000000000000000000000000000000004F
:10516000000000000000000000000000000000003F
:10517000000000000000000000000000000000002F
:10518000000000000000000000000000000000001F
:10519000000000000000000000000000000000000F
:1051A00000000000000000000000000000000000FF
:1051B00000000000000000000000000000000000EF
:1051C0000000000000000000C03FC0000000000020
:1051D0000000804020100C03000000030C10204051
:1051E0008000040484E41C0724242424A4642404EC
:1051F0000400020100FF00020242827F020202025A
:105200000200080888C8380C0B0808E808080808D5
:105210000800020100FF40414141417F41414141BD
:10522000400000000000000000000000000000003E
:10523000000000000000000000000000000000006E
:10524000000000000000000000000000000000005E
:10525000000000000000000000000000000000004E
:10526000000000000000000000000000000000003E
:10527000000000000000000000000000000000002E
:10528000000000000000000000000000000000001E
:10529000000000000000000000000000000000000E
:1052A00000000888888888FF000000FF88888888B8
:1052B00008001010101010FF000000FF1010101058
:1052C000100000040404040404FC040404040404A2
:1052D0000000202020202020203F202020202020EF
:1052E0002000008060F80740300FF8888888880820
:1052F0000800010000FF00000000FF08080808087F
:10530000000000FC848484FC001010101010FF10BA
:105310001000003F1010103F0000010640807F0089
:10532000000000F8010600F0121212F2020202FE62
:10533000000000FF0000001F1111111F0040807FBE
:10534000000000000000000000000000000000005D
:10535000000000000000000000000000000000004D
:10536000000000000000000000000000000000003D
:10537000000000000000000000000000000000002D
:10538000000000000000000000000000000000001D
:10539000000000000000000000000000000000000D
:1053A0000000000000000000C03FC000000000003E
:1053B0000000804020100C03000000030C1020406F
:1053C00080000000E28282828282828282FE00006D
:1053D000000000003F404040404040404040407896
:1053E0000000040404F484D4A5A6A4D484F4040422
:1053F000040000FE0202123A1613121A3242827E92
:10540000000080828282FE8282828282FE8282828A
:105410008000008040300F0000000000FF0000000E
:10542000000000000000000000000000000000007C
:10543000000000000000000000000000000000006C
:10544000000000000000000000000000000000005C
:10545000000000000000000000000000000000004C
:1054600000000000F010101010FF10101010F000DD
:10547000000000000F04040404FF040404040F00EF
:1054800000004040405F555555755555555F4040AB
:1054900040000040200F094989790909090F20407F
:1054A000000000FE02424ACA4A4ACA4A4A4202FE72
:1054B000000000FF40504C4340404F50505C40FFC4
:1054C00000000000F888888888FF88888888F800AD
:1054D000000000001F080808087F888888889F80CF
:1054E000F00080828282828282E2A2928A86828018
:1054F0008000000000000040807F000000000000ED
:105500000000101010FF109008888888FF88888895
:1055100008000444827F01808040432C102846818B
:1055200080000010101010D030FF30D0121C10106E
:10553000000010080402010000FF0000010204083E
:10554000100004040484E43C2724242424E40404F8
:10555000040004020100FF0909090949897F0000CC
:10556000000000FE225A8600FE9292929292FE0065
:10557000000000FF04080700FF4020030C14224134
:10558000400000804020180680000718204080005E
:10559000000001002070282621202024386000010E
:1055A0000100001012929292929292121202FE0048
:1055B00000000000003F101010103F0040807F00EE
:1055C0000000000000C080808080808080FC84809B
:1055D0008080808080C0C0000000000000FF7F400D
:1055E0004040404040FF40404040404040FF7F003E
:1055F000000000000000000000000000007F7000BC
:10560000000000000000000000000000000000009A
:10561000000000000000000000FCF8000000000096
:105620000000000000000000000000000000FFFE7D
:10563000020202020202020202FFFF020202020250
:1056400002020202FF0300000000000000001F1F12
:10565000040404040404040404FFFF040404040414
:10566000040404041F00000000000000000000000B
:105670000000000000000000007F3F00000000006C
:10568000000000000000000000000000000000001A
:10569000000000000000000000000000000000000A
:1056A00000000000000000F8F8F0F070200000009A
:1056B00000000000000000000000000000000000EA
:1056C00000000000000000000000000000000000DA
:1056D000000080000000000000000000000000004A
:1056E00000000000000000FFFFFFFF0000000000BE
:1056F00000000000000000000000000000008080AA
:105700000000000000000000000000000000000099
:10571000000000FFFFFE0606060606060606060651
:1057200006060606060606FFFFFFFF060606060635
:1057300006060606060606060606060606FFFFFF1E
:10574000FF07020000000000000000000000000051
:10575000000000FFFFFF000000000000000000004C
:1057600000000000000000FFFFFFFF00000000003D
:1057700000000000000000000000000000FFFFFF2C
:10578000FF0000000000000000000000000000001A
:10579000000000FFFFFF181818181818181818181C
:1057A00018181818181818FFFFFFFF1818181818DD
:1057B00018181818181818181818181818FFFFFFB4
:1057C000FF000000000000000000000000000000DA
:1057D00000000201010000000000000000000000C5
:1057E00000000000000000FFFFFFFF0000000000BD
:1057F00000000000000000000000000000010100A7
:105800000000000000000000000000000000000098
:105810000000000000000000000000000000000088
:1058200000000000000000FFFFFFFF00000000007C
:105830000000000000000000000000000000000068
:105840000000000000000000000000000000000058
:105850000000000000000000000000000000000048
:10586000000000000000001F1F0F0F0000000000DC
:105870000000000000000000000000000000000028
:10588000000000000000000000000000AC5800080C
:10589000000000203800000028010008E45800083B
:1058A00038000020A80B00004401000800A24A04B0
:1058B00000000000000000000102030406070809C0
:1058C00000000000010203040102030406070809A6
:1058D00002040608000000000000000000000000B4
:0458E00000000000C4
:04000005080000ED02
:00000001FF
